{
  "contractName": "NFTContract",
  "abi": [
    {
      "inputs": [],
      "stateMutability": "nonpayable",
      "type": "constructor"
    },
    {
      "anonymous": false,
      "inputs": [
        {
          "indexed": true,
          "internalType": "address",
          "name": "account",
          "type": "address"
        },
        {
          "indexed": true,
          "internalType": "address",
          "name": "operator",
          "type": "address"
        },
        {
          "indexed": false,
          "internalType": "bool",
          "name": "approved",
          "type": "bool"
        }
      ],
      "name": "ApprovalForAll",
      "type": "event"
    },
    {
      "anonymous": false,
      "inputs": [
        {
          "indexed": true,
          "internalType": "address",
          "name": "previousOwner",
          "type": "address"
        },
        {
          "indexed": true,
          "internalType": "address",
          "name": "newOwner",
          "type": "address"
        }
      ],
      "name": "OwnershipTransferred",
      "type": "event"
    },
    {
      "anonymous": false,
      "inputs": [
        {
          "indexed": true,
          "internalType": "address",
          "name": "operator",
          "type": "address"
        },
        {
          "indexed": true,
          "internalType": "address",
          "name": "from",
          "type": "address"
        },
        {
          "indexed": true,
          "internalType": "address",
          "name": "to",
          "type": "address"
        },
        {
          "indexed": false,
          "internalType": "uint256[]",
          "name": "ids",
          "type": "uint256[]"
        },
        {
          "indexed": false,
          "internalType": "uint256[]",
          "name": "values",
          "type": "uint256[]"
        }
      ],
      "name": "TransferBatch",
      "type": "event"
    },
    {
      "anonymous": false,
      "inputs": [
        {
          "indexed": true,
          "internalType": "address",
          "name": "operator",
          "type": "address"
        },
        {
          "indexed": true,
          "internalType": "address",
          "name": "from",
          "type": "address"
        },
        {
          "indexed": true,
          "internalType": "address",
          "name": "to",
          "type": "address"
        },
        {
          "indexed": false,
          "internalType": "uint256",
          "name": "id",
          "type": "uint256"
        },
        {
          "indexed": false,
          "internalType": "uint256",
          "name": "value",
          "type": "uint256"
        }
      ],
      "name": "TransferSingle",
      "type": "event"
    },
    {
      "anonymous": false,
      "inputs": [
        {
          "indexed": false,
          "internalType": "string",
          "name": "value",
          "type": "string"
        },
        {
          "indexed": true,
          "internalType": "uint256",
          "name": "id",
          "type": "uint256"
        }
      ],
      "name": "URI",
      "type": "event"
    },
    {
      "inputs": [],
      "name": "Femalefighter1",
      "outputs": [
        {
          "internalType": "uint256",
          "name": "",
          "type": "uint256"
        }
      ],
      "stateMutability": "view",
      "type": "function"
    },
    {
      "inputs": [],
      "name": "Femalefighter2",
      "outputs": [
        {
          "internalType": "uint256",
          "name": "",
          "type": "uint256"
        }
      ],
      "stateMutability": "view",
      "type": "function"
    },
    {
      "inputs": [],
      "name": "FighterCard",
      "outputs": [
        {
          "internalType": "uint256",
          "name": "",
          "type": "uint256"
        }
      ],
      "stateMutability": "view",
      "type": "function"
    },
    {
      "inputs": [],
      "name": "FighterFiteCard",
      "outputs": [
        {
          "internalType": "uint256",
          "name": "",
          "type": "uint256"
        }
      ],
      "stateMutability": "view",
      "type": "function"
    },
    {
      "inputs": [
        {
          "internalType": "address",
          "name": "account",
          "type": "address"
        },
        {
          "internalType": "uint256",
          "name": "id",
          "type": "uint256"
        }
      ],
      "name": "balanceOf",
      "outputs": [
        {
          "internalType": "uint256",
          "name": "",
          "type": "uint256"
        }
      ],
      "stateMutability": "view",
      "type": "function"
    },
    {
      "inputs": [
        {
          "internalType": "address[]",
          "name": "accounts",
          "type": "address[]"
        },
        {
          "internalType": "uint256[]",
          "name": "ids",
          "type": "uint256[]"
        }
      ],
      "name": "balanceOfBatch",
      "outputs": [
        {
          "internalType": "uint256[]",
          "name": "",
          "type": "uint256[]"
        }
      ],
      "stateMutability": "view",
      "type": "function"
    },
    {
      "inputs": [
        {
          "internalType": "address",
          "name": "account",
          "type": "address"
        },
        {
          "internalType": "address",
          "name": "operator",
          "type": "address"
        }
      ],
      "name": "isApprovedForAll",
      "outputs": [
        {
          "internalType": "bool",
          "name": "",
          "type": "bool"
        }
      ],
      "stateMutability": "view",
      "type": "function"
    },
    {
      "inputs": [],
      "name": "owner",
      "outputs": [
        {
          "internalType": "address",
          "name": "",
          "type": "address"
        }
      ],
      "stateMutability": "view",
      "type": "function"
    },
    {
      "inputs": [],
      "name": "renounceOwnership",
      "outputs": [],
      "stateMutability": "nonpayable",
      "type": "function"
    },
    {
      "inputs": [
        {
          "internalType": "address",
          "name": "from",
          "type": "address"
        },
        {
          "internalType": "address",
          "name": "to",
          "type": "address"
        },
        {
          "internalType": "uint256[]",
          "name": "ids",
          "type": "uint256[]"
        },
        {
          "internalType": "uint256[]",
          "name": "amounts",
          "type": "uint256[]"
        },
        {
          "internalType": "bytes",
          "name": "data",
          "type": "bytes"
        }
      ],
      "name": "safeBatchTransferFrom",
      "outputs": [],
      "stateMutability": "nonpayable",
      "type": "function"
    },
    {
      "inputs": [
        {
          "internalType": "address",
          "name": "from",
          "type": "address"
        },
        {
          "internalType": "address",
          "name": "to",
          "type": "address"
        },
        {
          "internalType": "uint256",
          "name": "id",
          "type": "uint256"
        },
        {
          "internalType": "uint256",
          "name": "amount",
          "type": "uint256"
        },
        {
          "internalType": "bytes",
          "name": "data",
          "type": "bytes"
        }
      ],
      "name": "safeTransferFrom",
      "outputs": [],
      "stateMutability": "nonpayable",
      "type": "function"
    },
    {
      "inputs": [
        {
          "internalType": "address",
          "name": "operator",
          "type": "address"
        },
        {
          "internalType": "bool",
          "name": "approved",
          "type": "bool"
        }
      ],
      "name": "setApprovalForAll",
      "outputs": [],
      "stateMutability": "nonpayable",
      "type": "function"
    },
    {
      "inputs": [
        {
          "internalType": "bytes4",
          "name": "interfaceId",
          "type": "bytes4"
        }
      ],
      "name": "supportsInterface",
      "outputs": [
        {
          "internalType": "bool",
          "name": "",
          "type": "bool"
        }
      ],
      "stateMutability": "view",
      "type": "function"
    },
    {
      "inputs": [
        {
          "internalType": "address",
          "name": "newOwner",
          "type": "address"
        }
      ],
      "name": "transferOwnership",
      "outputs": [],
      "stateMutability": "nonpayable",
      "type": "function"
    },
    {
      "inputs": [
        {
          "internalType": "uint256",
          "name": "",
          "type": "uint256"
        }
      ],
      "name": "uri",
      "outputs": [
        {
          "internalType": "string",
          "name": "",
          "type": "string"
        }
      ],
      "stateMutability": "view",
      "type": "function"
    },
    {
      "inputs": [
        {
          "internalType": "address",
          "name": "account",
          "type": "address"
        },
        {
          "internalType": "uint256",
          "name": "id",
          "type": "uint256"
        },
        {
          "internalType": "uint256",
          "name": "amount",
          "type": "uint256"
        }
      ],
      "name": "mint",
      "outputs": [],
      "stateMutability": "nonpayable",
      "type": "function"
    },
    {
      "inputs": [
        {
          "internalType": "address",
          "name": "account",
          "type": "address"
        },
        {
          "internalType": "uint256",
          "name": "id",
          "type": "uint256"
        },
        {
          "internalType": "uint256",
          "name": "amount",
          "type": "uint256"
        }
      ],
      "name": "burn",
      "outputs": [],
      "stateMutability": "nonpayable",
      "type": "function"
    }
  ],
  "bytecode": "0x60806040523480156200001157600080fd5b506040518060600160405280602e815260200162003f6f602e91396200003d81620000f860201b60201c565b506200005e620000526200011460201b60201c565b6200011c60201b60201c565b62000083336000600160405180602001604052806000815250620001e260201b60201c565b620000a8336001600260405180602001604052806000815250620001e260201b60201c565b620000cd336002600160405180602001604052806000815250620001e260201b60201c565b620000f2336003600160405180602001604052806000815250620001e260201b60201c565b62000dd2565b8060029080519060200190620001109291906200064d565b5050565b600033905090565b6000600360009054906101000a900473ffffffffffffffffffffffffffffffffffffffff16905081600360006101000a81548173ffffffffffffffffffffffffffffffffffffffff021916908373ffffffffffffffffffffffffffffffffffffffff1602179055508173ffffffffffffffffffffffffffffffffffffffff168173ffffffffffffffffffffffffffffffffffffffff167f8be0079c531659141344cd1fd0a4f28419497f9722a3daafe3b4186f6b6457e060405160405180910390a35050565b600073ffffffffffffffffffffffffffffffffffffffff168473ffffffffffffffffffffffffffffffffffffffff16141562000255576040517f08c379a00000000000000000000000000000000000000000000000000000000081526004016200024c906200092b565b60405180910390fd5b6000620002676200011460201b60201c565b9050620002a0816000876200028288620003a760201b60201c565b6200029388620003a760201b60201c565b876200042860201b60201c565b8260008086815260200190815260200160002060008773ffffffffffffffffffffffffffffffffffffffff1673ffffffffffffffffffffffffffffffffffffffff1681526020019081526020016000206000828254620003019190620009bc565b925050819055508473ffffffffffffffffffffffffffffffffffffffff16600073ffffffffffffffffffffffffffffffffffffffff168273ffffffffffffffffffffffffffffffffffffffff167fc3d58168c5ae7397731d063d5bbf3d657854427343f4c083240f7aacaa2d0f628787604051620003819291906200094d565b60405180910390a4620003a0816000878787876200043060201b60201c565b5050505050565b60606000600167ffffffffffffffff811115620003c957620003c862000bb2565b5b604051908082528060200260200182016040528015620003f85781602001602082028036833780820191505090505b509050828160008151811062000413576200041262000b83565b5b60200260200101818152505080915050919050565b505050505050565b6200045c8473ffffffffffffffffffffffffffffffffffffffff166200063a60201b62000c981760201c565b1562000632578373ffffffffffffffffffffffffffffffffffffffff1663f23a6e6187878686866040518663ffffffff1660e01b8152600401620004a59594939291906200085f565b602060405180830381600087803b158015620004c057600080fd5b505af1925050508015620004f457506040513d601f19601f82011682018060405250810190620004f1919062000714565b60015b620005a6576200050362000be1565b806308c379a014156200056757506200051b62000d16565b8062000528575062000569565b806040517f08c379a00000000000000000000000000000000000000000000000000000000081526004016200055e9190620008c3565b60405180910390fd5b505b6040517f08c379a00000000000000000000000000000000000000000000000000000000081526004016200059d90620008e7565b60405180910390fd5b63f23a6e6160e01b7bffffffffffffffffffffffffffffffffffffffffffffffffffffffff1916817bffffffffffffffffffffffffffffffffffffffffffffffffffffffff19161462000630576040517f08c379a0000000000000000000000000000000000000000000000000000000008152600401620006279062000909565b60405180910390fd5b505b505050505050565b600080823b905060008111915050919050565b8280546200065b9062000ab9565b90600052602060002090601f0160209004810192826200067f5760008555620006cb565b82601f106200069a57805160ff1916838001178555620006cb565b82800160010185558215620006cb579182015b82811115620006ca578251825591602001919060010190620006ad565b5b509050620006da9190620006de565b5090565b5b80821115620006f9576000816000905550600101620006df565b5090565b6000815190506200070e8162000db8565b92915050565b6000602082840312156200072d576200072c62000c06565b5b60006200073d84828501620006fd565b91505092915050565b620007518162000a19565b82525050565b6000620007648262000984565b6200077081856200099a565b93506200078281856020860162000a83565b6200078d8162000c0b565b840191505092915050565b6000620007a5826200098f565b620007b18185620009ab565b9350620007c381856020860162000a83565b620007ce8162000c0b565b840191505092915050565b6000620007e8603483620009ab565b9150620007f58262000c29565b604082019050919050565b60006200080f602883620009ab565b91506200081c8262000c78565b604082019050919050565b600062000836602183620009ab565b9150620008438262000cc7565b604082019050919050565b620008598162000a79565b82525050565b600060a08201905062000876600083018862000746565b62000885602083018762000746565b6200089460408301866200084e565b620008a360608301856200084e565b8181036080830152620008b7818462000757565b90509695505050505050565b60006020820190508181036000830152620008df818462000798565b905092915050565b600060208201905081810360008301526200090281620007d9565b9050919050565b60006020820190508181036000830152620009248162000800565b9050919050565b60006020820190508181036000830152620009468162000827565b9050919050565b60006040820190506200096460008301856200084e565b6200097360208301846200084e565b9392505050565b6000604051905090565b600081519050919050565b600081519050919050565b600082825260208201905092915050565b600082825260208201905092915050565b6000620009c98262000a79565b9150620009d68362000a79565b9250827fffffffffffffffffffffffffffffffffffffffffffffffffffffffffffffffff0382111562000a0e5762000a0d62000b25565b5b828201905092915050565b600062000a268262000a59565b9050919050565b60007fffffffff0000000000000000000000000000000000000000000000000000000082169050919050565b600073ffffffffffffffffffffffffffffffffffffffff82169050919050565b6000819050919050565b60005b8381101562000aa357808201518184015260208101905062000a86565b8381111562000ab3576000848401525b50505050565b6000600282049050600182168062000ad257607f821691505b6020821081141562000ae95762000ae862000b54565b5b50919050565b62000afa8262000c0b565b810181811067ffffffffffffffff8211171562000b1c5762000b1b62000bb2565b5b80604052505050565b7f4e487b7100000000000000000000000000000000000000000000000000000000600052601160045260246000fd5b7f4e487b7100000000000000000000000000000000000000000000000000000000600052602260045260246000fd5b7f4e487b7100000000000000000000000000000000000000000000000000000000600052603260045260246000fd5b7f4e487b7100000000000000000000000000000000000000000000000000000000600052604160045260246000fd5b600060033d111562000c035760046000803e62000c0060005162000c1c565b90505b90565b600080fd5b6000601f19601f8301169050919050565b60008160e01c9050919050565b7f455243313135353a207472616e7366657220746f206e6f6e204552433131353560008201527f526563656976657220696d706c656d656e746572000000000000000000000000602082015250565b7f455243313135353a204552433131353552656365697665722072656a6563746560008201527f6420746f6b656e73000000000000000000000000000000000000000000000000602082015250565b7f455243313135353a206d696e7420746f20746865207a65726f2061646472657360008201527f7300000000000000000000000000000000000000000000000000000000000000602082015250565b600060443d101562000d285762000db5565b62000d326200097a565b60043d036004823e80513d602482011167ffffffffffffffff8211171562000d5c57505062000db5565b808201805167ffffffffffffffff81111562000d7c575050505062000db5565b80602083010160043d03850181111562000d9b57505050505062000db5565b62000dac8260200185018662000aef565b82955050505050505b90565b62000dc38162000a2d565b811462000dcf57600080fd5b50565b61318d8062000de26000396000f3fe608060405234801561001057600080fd5b506004361061010a5760003560e01c8063715018a6116100a2578063e985e9c511610071578063e985e9c5146102a5578063ee5ca455146102d5578063f242432a146102f3578063f2fde38b1461030f578063f5298aca1461032b5761010a565b8063715018a6146102435780638da5cb5b1461024d578063a22cb4651461026b578063c474dc03146102875761010a565b80632eb2c2d6116100de5780632eb2c2d6146101bb578063348a5b18146101d75780634bc5ab3a146101f55780634e1273f4146102135761010a565b8062fdd58e1461010f57806301ffc9a71461013f5780630e89341c1461016f578063156e29f61461019f575b600080fd5b61012960048036038101906101249190611fa4565b610347565b60405161013691906127ba565b60405180910390f35b610159600480360381019061015491906120af565b610410565b604051610166919061259d565b60405180910390f35b61018960048036038101906101849190612109565b6104f2565b60405161019691906125b8565b60405180910390f35b6101b960048036038101906101b49190611fe4565b610586565b005b6101d560048036038101906101d09190611dfe565b610622565b005b6101df6106c3565b6040516101ec91906127ba565b60405180910390f35b6101fd6106c8565b60405161020a91906127ba565b60405180910390f35b61022d60048036038101906102289190612037565b6106cd565b60405161023a9190612544565b60405180910390f35b61024b6107e6565b005b61025561086e565b6040516102629190612467565b60405180910390f35b61028560048036038101906102809190611f64565b610898565b005b61028f610a19565b60405161029c91906127ba565b60405180910390f35b6102bf60048036038101906102ba9190611dbe565b610a1e565b6040516102cc919061259d565b60405180910390f35b6102dd610ab2565b6040516102ea91906127ba565b60405180910390f35b61030d60048036038101906103089190611ecd565b610ab7565b005b61032960048036038101906103249190611d91565b610b58565b005b61034560048036038101906103409190611fe4565b610c50565b005b60008073ffffffffffffffffffffffffffffffffffffffff168373ffffffffffffffffffffffffffffffffffffffff1614156103b8576040517f08c379a00000000000000000000000000000000000000000000000000000000081526004016103af9061261a565b60405180910390fd5b60008083815260200190815260200160002060008473ffffffffffffffffffffffffffffffffffffffff1673ffffffffffffffffffffffffffffffffffffffff16815260200190815260200160002054905092915050565b60007fd9b67a26000000000000000000000000000000000000000000000000000000007bffffffffffffffffffffffffffffffffffffffffffffffffffffffff1916827bffffffffffffffffffffffffffffffffffffffffffffffffffffffff191614806104db57507f0e89341c000000000000000000000000000000000000000000000000000000007bffffffffffffffffffffffffffffffffffffffffffffffffffffffff1916827bffffffffffffffffffffffffffffffffffffffffffffffffffffffff1916145b806104eb57506104ea82610cab565b5b9050919050565b60606002805461050190612a29565b80601f016020809104026020016040519081016040528092919081815260200182805461052d90612a29565b801561057a5780601f1061054f5761010080835404028352916020019161057a565b820191906000526020600020905b81548152906001019060200180831161055d57829003601f168201915b50505050509050919050565b61058e610d15565b73ffffffffffffffffffffffffffffffffffffffff166105ac61086e565b73ffffffffffffffffffffffffffffffffffffffff1614610602576040517f08c379a00000000000000000000000000000000000000000000000000000000081526004016105f99061271a565b60405180910390fd5b61061d83838360405180602001604052806000815250610d1d565b505050565b61062a610d15565b73ffffffffffffffffffffffffffffffffffffffff168573ffffffffffffffffffffffffffffffffffffffff161480610670575061066f8561066a610d15565b610a1e565b5b6106af576040517f08c379a00000000000000000000000000000000000000000000000000000000081526004016106a6906126ba565b60405180910390fd5b6106bc8585858585610eb3565b5050505050565b600281565b600081565b60608151835114610713576040517f08c379a000000000000000000000000000000000000000000000000000000000815260040161070a9061275a565b60405180910390fd5b6000835167ffffffffffffffff8111156107305761072f612b62565b5b60405190808252806020026020018201604052801561075e5781602001602082028036833780820191505090505b50905060005b84518110156107db576107ab85828151811061078357610782612b33565b5b602002602001015185838151811061079e5761079d612b33565b5b6020026020010151610347565b8282815181106107be576107bd612b33565b5b602002602001018181525050806107d490612a8c565b9050610764565b508091505092915050565b6107ee610d15565b73ffffffffffffffffffffffffffffffffffffffff1661080c61086e565b73ffffffffffffffffffffffffffffffffffffffff1614610862576040517f08c379a00000000000000000000000000000000000000000000000000000000081526004016108599061271a565b60405180910390fd5b61086c60006111c7565b565b6000600360009054906101000a900473ffffffffffffffffffffffffffffffffffffffff16905090565b8173ffffffffffffffffffffffffffffffffffffffff166108b7610d15565b73ffffffffffffffffffffffffffffffffffffffff16141561090e576040517f08c379a00000000000000000000000000000000000000000000000000000000081526004016109059061273a565b60405180910390fd5b806001600061091b610d15565b73ffffffffffffffffffffffffffffffffffffffff1673ffffffffffffffffffffffffffffffffffffffff16815260200190815260200160002060008473ffffffffffffffffffffffffffffffffffffffff1673ffffffffffffffffffffffffffffffffffffffff16815260200190815260200160002060006101000a81548160ff0219169083151502179055508173ffffffffffffffffffffffffffffffffffffffff166109c8610d15565b73ffffffffffffffffffffffffffffffffffffffff167f17307eab39ab6107e8899845ad3d59bd9653f200f220920489ca2b5937696c3183604051610a0d919061259d565b60405180910390a35050565b600381565b6000600160008473ffffffffffffffffffffffffffffffffffffffff1673ffffffffffffffffffffffffffffffffffffffff16815260200190815260200160002060008373ffffffffffffffffffffffffffffffffffffffff1673ffffffffffffffffffffffffffffffffffffffff16815260200190815260200160002060009054906101000a900460ff16905092915050565b600181565b610abf610d15565b73ffffffffffffffffffffffffffffffffffffffff168573ffffffffffffffffffffffffffffffffffffffff161480610b055750610b0485610aff610d15565b610a1e565b5b610b44576040517f08c379a0000000000000000000000000000000000000000000000000000000008152600401610b3b9061267a565b60405180910390fd5b610b51858585858561128d565b5050505050565b610b60610d15565b73ffffffffffffffffffffffffffffffffffffffff16610b7e61086e565b73ffffffffffffffffffffffffffffffffffffffff1614610bd4576040517f08c379a0000000000000000000000000000000000000000000000000000000008152600401610bcb9061271a565b60405180910390fd5b600073ffffffffffffffffffffffffffffffffffffffff168173ffffffffffffffffffffffffffffffffffffffff161415610c44576040517f08c379a0000000000000000000000000000000000000000000000000000000008152600401610c3b9061263a565b60405180910390fd5b610c4d816111c7565b50565b8273ffffffffffffffffffffffffffffffffffffffff163373ffffffffffffffffffffffffffffffffffffffff1614610c8857600080fd5b610c9383838361150f565b505050565b600080823b905060008111915050919050565b60007f01ffc9a7000000000000000000000000000000000000000000000000000000007bffffffffffffffffffffffffffffffffffffffffffffffffffffffff1916827bffffffffffffffffffffffffffffffffffffffffffffffffffffffff1916149050919050565b600033905090565b600073ffffffffffffffffffffffffffffffffffffffff168473ffffffffffffffffffffffffffffffffffffffff161415610d8d576040517f08c379a0000000000000000000000000000000000000000000000000000000008152600401610d849061279a565b60405180910390fd5b6000610d97610d15565b9050610db881600087610da98861172c565b610db28861172c565b876117a6565b8260008086815260200190815260200160002060008773ffffffffffffffffffffffffffffffffffffffff1673ffffffffffffffffffffffffffffffffffffffff1681526020019081526020016000206000828254610e17919061291d565b925050819055508473ffffffffffffffffffffffffffffffffffffffff16600073ffffffffffffffffffffffffffffffffffffffff168273ffffffffffffffffffffffffffffffffffffffff167fc3d58168c5ae7397731d063d5bbf3d657854427343f4c083240f7aacaa2d0f628787604051610e959291906127d5565b60405180910390a4610eac816000878787876117ae565b5050505050565b8151835114610ef7576040517f08c379a0000000000000000000000000000000000000000000000000000000008152600401610eee9061277a565b60405180910390fd5b600073ffffffffffffffffffffffffffffffffffffffff168473ffffffffffffffffffffffffffffffffffffffff161415610f67576040517f08c379a0000000000000000000000000000000000000000000000000000000008152600401610f5e9061269a565b60405180910390fd5b6000610f71610d15565b9050610f818187878787876117a6565b60005b8451811015611132576000858281518110610fa257610fa1612b33565b5b602002602001015190506000858381518110610fc157610fc0612b33565b5b60200260200101519050600080600084815260200190815260200160002060008b73ffffffffffffffffffffffffffffffffffffffff1673ffffffffffffffffffffffffffffffffffffffff16815260200190815260200160002054905081811015611062576040517f08c379a0000000000000000000000000000000000000000000000000000000008152600401611059906126fa565b60405180910390fd5b81810360008085815260200190815260200160002060008c73ffffffffffffffffffffffffffffffffffffffff1673ffffffffffffffffffffffffffffffffffffffff168152602001908152602001600020819055508160008085815260200190815260200160002060008b73ffffffffffffffffffffffffffffffffffffffff1673ffffffffffffffffffffffffffffffffffffffff1681526020019081526020016000206000828254611117919061291d565b925050819055505050508061112b90612a8c565b9050610f84565b508473ffffffffffffffffffffffffffffffffffffffff168673ffffffffffffffffffffffffffffffffffffffff168273ffffffffffffffffffffffffffffffffffffffff167f4a39dc06d4c0dbc64b70af90fd698a233a518aa5d07e595d983b8c0526c8f7fb87876040516111a9929190612566565b60405180910390a46111bf818787878787611995565b505050505050565b6000600360009054906101000a900473ffffffffffffffffffffffffffffffffffffffff16905081600360006101000a81548173ffffffffffffffffffffffffffffffffffffffff021916908373ffffffffffffffffffffffffffffffffffffffff1602179055508173ffffffffffffffffffffffffffffffffffffffff168173ffffffffffffffffffffffffffffffffffffffff167f8be0079c531659141344cd1fd0a4f28419497f9722a3daafe3b4186f6b6457e060405160405180910390a35050565b600073ffffffffffffffffffffffffffffffffffffffff168473ffffffffffffffffffffffffffffffffffffffff1614156112fd576040517f08c379a00000000000000000000000000000000000000000000000000000000081526004016112f49061269a565b60405180910390fd5b6000611307610d15565b90506113278187876113188861172c565b6113218861172c565b876117a6565b600080600086815260200190815260200160002060008873ffffffffffffffffffffffffffffffffffffffff1673ffffffffffffffffffffffffffffffffffffffff168152602001908152602001600020549050838110156113be576040517f08c379a00000000000000000000000000000000000000000000000000000000081526004016113b5906126fa565b60405180910390fd5b83810360008087815260200190815260200160002060008973ffffffffffffffffffffffffffffffffffffffff1673ffffffffffffffffffffffffffffffffffffffff168152602001908152602001600020819055508360008087815260200190815260200160002060008873ffffffffffffffffffffffffffffffffffffffff1673ffffffffffffffffffffffffffffffffffffffff1681526020019081526020016000206000828254611473919061291d565b925050819055508573ffffffffffffffffffffffffffffffffffffffff168773ffffffffffffffffffffffffffffffffffffffff168373ffffffffffffffffffffffffffffffffffffffff167fc3d58168c5ae7397731d063d5bbf3d657854427343f4c083240f7aacaa2d0f6288886040516114f09291906127d5565b60405180910390a46115068288888888886117ae565b50505050505050565b600073ffffffffffffffffffffffffffffffffffffffff168373ffffffffffffffffffffffffffffffffffffffff16141561157f576040517f08c379a0000000000000000000000000000000000000000000000000000000008152600401611576906126da565b60405180910390fd5b6000611589610d15565b90506115b98185600061159b8761172c565b6115a48761172c565b604051806020016040528060008152506117a6565b600080600085815260200190815260200160002060008673ffffffffffffffffffffffffffffffffffffffff1673ffffffffffffffffffffffffffffffffffffffff16815260200190815260200160002054905082811015611650576040517f08c379a00000000000000000000000000000000000000000000000000000000081526004016116479061265a565b60405180910390fd5b82810360008086815260200190815260200160002060008773ffffffffffffffffffffffffffffffffffffffff1673ffffffffffffffffffffffffffffffffffffffff16815260200190815260200160002081905550600073ffffffffffffffffffffffffffffffffffffffff168573ffffffffffffffffffffffffffffffffffffffff168373ffffffffffffffffffffffffffffffffffffffff167fc3d58168c5ae7397731d063d5bbf3d657854427343f4c083240f7aacaa2d0f62878760405161171d9291906127d5565b60405180910390a45050505050565b60606000600167ffffffffffffffff81111561174b5761174a612b62565b5b6040519080825280602002602001820160405280156117795781602001602082028036833780820191505090505b509050828160008151811061179157611790612b33565b5b60200260200101818152505080915050919050565b505050505050565b6117cd8473ffffffffffffffffffffffffffffffffffffffff16610c98565b1561198d578373ffffffffffffffffffffffffffffffffffffffff1663f23a6e6187878686866040518663ffffffff1660e01b81526004016118139594939291906124ea565b602060405180830381600087803b15801561182d57600080fd5b505af192505050801561185e57506040513d601f19601f8201168201806040525081019061185b91906120dc565b60015b6119045761186a612b91565b806308c379a014156118c7575061187f613065565b8061188a57506118c9565b806040517f08c379a00000000000000000000000000000000000000000000000000000000081526004016118be91906125b8565b60405180910390fd5b505b6040517f08c379a00000000000000000000000000000000000000000000000000000000081526004016118fb906125da565b60405180910390fd5b63f23a6e6160e01b7bffffffffffffffffffffffffffffffffffffffffffffffffffffffff1916817bffffffffffffffffffffffffffffffffffffffffffffffffffffffff19161461198b576040517f08c379a0000000000000000000000000000000000000000000000000000000008152600401611982906125fa565b60405180910390fd5b505b505050505050565b6119b48473ffffffffffffffffffffffffffffffffffffffff16610c98565b15611b74578373ffffffffffffffffffffffffffffffffffffffff1663bc197c8187878686866040518663ffffffff1660e01b81526004016119fa959493929190612482565b602060405180830381600087803b158015611a1457600080fd5b505af1925050508015611a4557506040513d601f19601f82011682018060405250810190611a4291906120dc565b60015b611aeb57611a51612b91565b806308c379a01415611aae5750611a66613065565b80611a715750611ab0565b806040517f08c379a0000000000000000000000000000000000000000000000000000000008152600401611aa591906125b8565b60405180910390fd5b505b6040517f08c379a0000000000000000000000000000000000000000000000000000000008152600401611ae2906125da565b60405180910390fd5b63bc197c8160e01b7bffffffffffffffffffffffffffffffffffffffffffffffffffffffff1916817bffffffffffffffffffffffffffffffffffffffffffffffffffffffff191614611b72576040517f08c379a0000000000000000000000000000000000000000000000000000000008152600401611b69906125fa565b60405180910390fd5b505b505050505050565b6000611b8f611b8a84612823565b6127fe565b90508083825260208201905082856020860282011115611bb257611bb1612bb8565b5b60005b85811015611be25781611bc88882611c9e565b845260208401935060208301925050600181019050611bb5565b5050509392505050565b6000611bff611bfa8461284f565b6127fe565b90508083825260208201905082856020860282011115611c2257611c21612bb8565b5b60005b85811015611c525781611c388882611d7c565b845260208401935060208301925050600181019050611c25565b5050509392505050565b6000611c6f611c6a8461287b565b6127fe565b905082815260208101848484011115611c8b57611c8a612bbd565b5b611c968482856129e7565b509392505050565b600081359050611cad816130fb565b92915050565b600082601f830112611cc857611cc7612bb3565b5b8135611cd8848260208601611b7c565b91505092915050565b600082601f830112611cf657611cf5612bb3565b5b8135611d06848260208601611bec565b91505092915050565b600081359050611d1e81613112565b92915050565b600081359050611d3381613129565b92915050565b600081519050611d4881613129565b92915050565b600082601f830112611d6357611d62612bb3565b5b8135611d73848260208601611c5c565b91505092915050565b600081359050611d8b81613140565b92915050565b600060208284031215611da757611da6612bc7565b5b6000611db584828501611c9e565b91505092915050565b60008060408385031215611dd557611dd4612bc7565b5b6000611de385828601611c9e565b9250506020611df485828601611c9e565b9150509250929050565b600080600080600060a08688031215611e1a57611e19612bc7565b5b6000611e2888828901611c9e565b9550506020611e3988828901611c9e565b945050604086013567ffffffffffffffff811115611e5a57611e59612bc2565b5b611e6688828901611ce1565b935050606086013567ffffffffffffffff811115611e8757611e86612bc2565b5b611e9388828901611ce1565b925050608086013567ffffffffffffffff811115611eb457611eb3612bc2565b5b611ec088828901611d4e565b9150509295509295909350565b600080600080600060a08688031215611ee957611ee8612bc7565b5b6000611ef788828901611c9e565b9550506020611f0888828901611c9e565b9450506040611f1988828901611d7c565b9350506060611f2a88828901611d7c565b925050608086013567ffffffffffffffff811115611f4b57611f4a612bc2565b5b611f5788828901611d4e565b9150509295509295909350565b60008060408385031215611f7b57611f7a612bc7565b5b6000611f8985828601611c9e565b9250506020611f9a85828601611d0f565b9150509250929050565b60008060408385031215611fbb57611fba612bc7565b5b6000611fc985828601611c9e565b9250506020611fda85828601611d7c565b9150509250929050565b600080600060608486031215611ffd57611ffc612bc7565b5b600061200b86828701611c9e565b935050602061201c86828701611d7c565b925050604061202d86828701611d7c565b9150509250925092565b6000806040838503121561204e5761204d612bc7565b5b600083013567ffffffffffffffff81111561206c5761206b612bc2565b5b61207885828601611cb3565b925050602083013567ffffffffffffffff81111561209957612098612bc2565b5b6120a585828601611ce1565b9150509250929050565b6000602082840312156120c5576120c4612bc7565b5b60006120d384828501611d24565b91505092915050565b6000602082840312156120f2576120f1612bc7565b5b600061210084828501611d39565b91505092915050565b60006020828403121561211f5761211e612bc7565b5b600061212d84828501611d7c565b91505092915050565b60006121428383612449565b60208301905092915050565b61215781612973565b82525050565b6000612168826128bc565b61217281856128ea565b935061217d836128ac565b8060005b838110156121ae5781516121958882612136565b97506121a0836128dd565b925050600181019050612181565b5085935050505092915050565b6121c481612985565b82525050565b60006121d5826128c7565b6121df81856128fb565b93506121ef8185602086016129f6565b6121f881612bcc565b840191505092915050565b600061220e826128d2565b612218818561290c565b93506122288185602086016129f6565b61223181612bcc565b840191505092915050565b600061224960348361290c565b915061225482612bea565b604082019050919050565b600061226c60288361290c565b915061227782612c39565b604082019050919050565b600061228f602b8361290c565b915061229a82612c88565b604082019050919050565b60006122b260268361290c565b91506122bd82612cd7565b604082019050919050565b60006122d560248361290c565b91506122e082612d26565b604082019050919050565b60006122f860298361290c565b915061230382612d75565b604082019050919050565b600061231b60258361290c565b915061232682612dc4565b604082019050919050565b600061233e60328361290c565b915061234982612e13565b604082019050919050565b600061236160238361290c565b915061236c82612e62565b604082019050919050565b6000612384602a8361290c565b915061238f82612eb1565b604082019050919050565b60006123a760208361290c565b91506123b282612f00565b602082019050919050565b60006123ca60298361290c565b91506123d582612f29565b604082019050919050565b60006123ed60298361290c565b91506123f882612f78565b604082019050919050565b600061241060288361290c565b915061241b82612fc7565b604082019050919050565b600061243360218361290c565b915061243e82613016565b604082019050919050565b612452816129dd565b82525050565b612461816129dd565b82525050565b600060208201905061247c600083018461214e565b92915050565b600060a082019050612497600083018861214e565b6124a4602083018761214e565b81810360408301526124b6818661215d565b905081810360608301526124ca818561215d565b905081810360808301526124de81846121ca565b90509695505050505050565b600060a0820190506124ff600083018861214e565b61250c602083018761214e565b6125196040830186612458565b6125266060830185612458565b818103608083015261253881846121ca565b90509695505050505050565b6000602082019050818103600083015261255e818461215d565b905092915050565b60006040820190508181036000830152612580818561215d565b90508181036020830152612594818461215d565b90509392505050565b60006020820190506125b260008301846121bb565b92915050565b600060208201905081810360008301526125d28184612203565b905092915050565b600060208201905081810360008301526125f38161223c565b9050919050565b600060208201905081810360008301526126138161225f565b9050919050565b6000602082019050818103600083015261263381612282565b9050919050565b60006020820190508181036000830152612653816122a5565b9050919050565b60006020820190508181036000830152612673816122c8565b9050919050565b60006020820190508181036000830152612693816122eb565b9050919050565b600060208201905081810360008301526126b38161230e565b9050919050565b600060208201905081810360008301526126d381612331565b9050919050565b600060208201905081810360008301526126f381612354565b9050919050565b6000602082019050818103600083015261271381612377565b9050919050565b600060208201905081810360008301526127338161239a565b9050919050565b60006020820190508181036000830152612753816123bd565b9050919050565b60006020820190508181036000830152612773816123e0565b9050919050565b6000602082019050818103600083015261279381612403565b9050919050565b600060208201905081810360008301526127b381612426565b9050919050565b60006020820190506127cf6000830184612458565b92915050565b60006040820190506127ea6000830185612458565b6127f76020830184612458565b9392505050565b6000612808612819565b90506128148282612a5b565b919050565b6000604051905090565b600067ffffffffffffffff82111561283e5761283d612b62565b5b602082029050602081019050919050565b600067ffffffffffffffff82111561286a57612869612b62565b5b602082029050602081019050919050565b600067ffffffffffffffff82111561289657612895612b62565b5b61289f82612bcc565b9050602081019050919050565b6000819050602082019050919050565b600081519050919050565b600081519050919050565b600081519050919050565b6000602082019050919050565b600082825260208201905092915050565b600082825260208201905092915050565b600082825260208201905092915050565b6000612928826129dd565b9150612933836129dd565b9250827fffffffffffffffffffffffffffffffffffffffffffffffffffffffffffffffff0382111561296857612967612ad5565b5b828201905092915050565b600061297e826129bd565b9050919050565b60008115159050919050565b60007fffffffff0000000000000000000000000000000000000000000000000000000082169050919050565b600073ffffffffffffffffffffffffffffffffffffffff82169050919050565b6000819050919050565b82818337600083830152505050565b60005b83811015612a145780820151818401526020810190506129f9565b83811115612a23576000848401525b50505050565b60006002820490506001821680612a4157607f821691505b60208210811415612a5557612a54612b04565b5b50919050565b612a6482612bcc565b810181811067ffffffffffffffff82111715612a8357612a82612b62565b5b80604052505050565b6000612a97826129dd565b91507fffffffffffffffffffffffffffffffffffffffffffffffffffffffffffffffff821415612aca57612ac9612ad5565b5b600182019050919050565b7f4e487b7100000000000000000000000000000000000000000000000000000000600052601160045260246000fd5b7f4e487b7100000000000000000000000000000000000000000000000000000000600052602260045260246000fd5b7f4e487b7100000000000000000000000000000000000000000000000000000000600052603260045260246000fd5b7f4e487b7100000000000000000000000000000000000000000000000000000000600052604160045260246000fd5b600060033d1115612bb05760046000803e612bad600051612bdd565b90505b90565b600080fd5b600080fd5b600080fd5b600080fd5b600080fd5b6000601f19601f8301169050919050565b60008160e01c9050919050565b7f455243313135353a207472616e7366657220746f206e6f6e204552433131353560008201527f526563656976657220696d706c656d656e746572000000000000000000000000602082015250565b7f455243313135353a204552433131353552656365697665722072656a6563746560008201527f6420746f6b656e73000000000000000000000000000000000000000000000000602082015250565b7f455243313135353a2062616c616e636520717565727920666f7220746865207a60008201527f65726f2061646472657373000000000000000000000000000000000000000000602082015250565b7f4f776e61626c653a206e6577206f776e657220697320746865207a65726f206160008201527f6464726573730000000000000000000000000000000000000000000000000000602082015250565b7f455243313135353a206275726e20616d6f756e7420657863656564732062616c60008201527f616e636500000000000000000000000000000000000000000000000000000000602082015250565b7f455243313135353a2063616c6c6572206973206e6f74206f776e6572206e6f7260008201527f20617070726f7665640000000000000000000000000000000000000000000000602082015250565b7f455243313135353a207472616e7366657220746f20746865207a65726f20616460008201527f6472657373000000000000000000000000000000000000000000000000000000602082015250565b7f455243313135353a207472616e736665722063616c6c6572206973206e6f742060008201527f6f776e6572206e6f7220617070726f7665640000000000000000000000000000602082015250565b7f455243313135353a206275726e2066726f6d20746865207a65726f206164647260008201527f6573730000000000000000000000000000000000000000000000000000000000602082015250565b7f455243313135353a20696e73756666696369656e742062616c616e636520666f60008201527f72207472616e7366657200000000000000000000000000000000000000000000602082015250565b7f4f776e61626c653a2063616c6c6572206973206e6f7420746865206f776e6572600082015250565b7f455243313135353a2073657474696e6720617070726f76616c2073746174757360008201527f20666f722073656c660000000000000000000000000000000000000000000000602082015250565b7f455243313135353a206163636f756e747320616e6420696473206c656e67746860008201527f206d69736d617463680000000000000000000000000000000000000000000000602082015250565b7f455243313135353a2069647320616e6420616d6f756e7473206c656e6774682060008201527f6d69736d61746368000000000000000000000000000000000000000000000000602082015250565b7f455243313135353a206d696e7420746f20746865207a65726f2061646472657360008201527f7300000000000000000000000000000000000000000000000000000000000000602082015250565b600060443d1015613075576130f8565b61307d612819565b60043d036004823e80513d602482011167ffffffffffffffff821117156130a55750506130f8565b808201805167ffffffffffffffff8111156130c357505050506130f8565b80602083010160043d0385018111156130e05750505050506130f8565b6130ef82602001850186612a5b565b82955050505050505b90565b61310481612973565b811461310f57600080fd5b50565b61311b81612985565b811461312657600080fd5b50565b61313281612991565b811461313d57600080fd5b50565b613149816129dd565b811461315457600080fd5b5056fea2646970667358221220f2709f99ee8fde3141a0fcfc2155533cbf246eebe79bcf149f49179494d454ca64736f6c6343000805003368747470733a2f2f6372376765316b76653975372e6d6f72616c6973686f73742e636f6d2f7b69647d2e6a736f6e",
  "immutableReferences": {},
  "source": "pragma solidity >=0.4.22 <0.9.0;\r\nimport \"../node_modules/@openzeppelin/contracts/token/ERC1155/ERC1155.sol\";\r\nimport \"../node_modules/@openzeppelin/contracts/access/Ownable.sol\";\r\n\r\ncontract NFTContract is ERC1155, Ownable{\r\n\r\n    uint256 public constant FighterFiteCard = 0;\r\n    uint256 public constant FighterCard = 1;\r\n    uint256 public constant Femalefighter1 = 2;\r\n    uint256 public constant Femalefighter2 = 3;\r\n \r\n\r\n\r\n    constructor() ERC1155(\"https://cr7ge1kve9u7.moralishost.com/{id}.json\")\r\n    {\r\n        _mint(msg.sender,FighterFiteCard,1,\"\");\r\n        _mint(msg.sender,FighterCard,2,\"\");\r\n        _mint(msg.sender,Femalefighter1,1,\"\");\r\n        _mint(msg.sender,Femalefighter2,1,\"\");\r\n        \r\n      \r\n\r\n    }\r\n    function mint(address account, uint256 id, uint256 amount) public onlyOwner\r\n    {\r\n    \r\n        _mint (account, id, amount,\"\");\r\n}\r\n    \r\n    function burn(address account, uint256 id, uint256 amount) public\r\n    {   require((msg.sender == account));\r\n        _burn(account, id, amount);\r\n    }\r\n}",
  "sourcePath": "C:\\Users\\LIFE GOOD\\Desktop\\Franker iterations\\F-ranker2\\contracts\\NFTContract.sol",
  "compiler": {
    "name": "solc",
    "version": "0.8.5+commit.a4f2e591.Emscripten.clang"
  },
  "schemaVersion": "3.4.3",
  "updatedAt": "2021-11-03T19:16:35.911Z",
  "devdoc": {
    "kind": "dev",
    "methods": {
      "balanceOf(address,uint256)": {
        "details": "See {IERC1155-balanceOf}. Requirements: - `account` cannot be the zero address."
      },
      "balanceOfBatch(address[],uint256[])": {
        "details": "See {IERC1155-balanceOfBatch}. Requirements: - `accounts` and `ids` must have the same length."
      },
      "isApprovedForAll(address,address)": {
        "details": "See {IERC1155-isApprovedForAll}."
      },
      "owner()": {
        "details": "Returns the address of the current owner."
      },
      "renounceOwnership()": {
        "details": "Leaves the contract without owner. It will not be possible to call `onlyOwner` functions anymore. Can only be called by the current owner. NOTE: Renouncing ownership will leave the contract without an owner, thereby removing any functionality that is only available to the owner."
      },
      "safeBatchTransferFrom(address,address,uint256[],uint256[],bytes)": {
        "details": "See {IERC1155-safeBatchTransferFrom}."
      },
      "safeTransferFrom(address,address,uint256,uint256,bytes)": {
        "details": "See {IERC1155-safeTransferFrom}."
      },
      "setApprovalForAll(address,bool)": {
        "details": "See {IERC1155-setApprovalForAll}."
      },
      "supportsInterface(bytes4)": {
        "details": "See {IERC165-supportsInterface}."
      },
      "transferOwnership(address)": {
        "details": "Transfers ownership of the contract to a new account (`newOwner`). Can only be called by the current owner."
      },
      "uri(uint256)": {
        "details": "See {IERC1155MetadataURI-uri}. This implementation returns the same URI for *all* token types. It relies on the token type ID substitution mechanism https://eips.ethereum.org/EIPS/eip-1155#metadata[defined in the EIP]. Clients calling this function must replace the `\\{id\\}` substring with the actual token type ID."
      }
    },
    "version": 1
  },
  "userdoc": {
    "kind": "user",
    "methods": {},
    "version": 1
  }
}